:020000040800F2
:10000000C8960020418101081D7601082976010863
:1000100031760108337601083B76010800000000C4
:100020000000000000000000000000002170010836
:100030004376010800000000C96F010847760108F7
:100040007181010875810108798101087D810108AC
:100050008181010885810108898101088D8101085C
:100060009181010895810108998101089D8101080C
:10007000A1810108A5810108A9810108AD810108BC
:10008000B1810108B581010883770108B9810108B0
:10009000BD810108C1810108C5810108C98101082C
:1000A000CD81010895770108A7770108D181010862
:1000B000D5810108D9810108DD810108E1810108AC
:1000C000E5810108E9810108ED810108F18101085C
:1000D000F5810108B9770108F9810108BF770108A6
:1000E00025780108FD8101080182010805820108C7
:1000F000098201083B7801080D820108118201087C
:1001000015820108198201081D8201082182010857
:1001100025820108298201082D8201084178010801
:1001200075780108318201087B7801083582010861
:10013000398201083D820108418201084582010897
:10014000498201084D820108518201085582010847
:10015000598201085D8201086182010865820108F7
:10016000698201086D8201087182010875820108A7
:10017000798201087D820108818201080000000067
:08018000858201088982010853
:020000040801F1
:1000000070B5034600200C0014D08C18B4F5817F25
:1000100010DA491EDFF84C4D95B265B134F8115035
:100020002D0A03F8015B521E34F8116003F8016BCE
:10003000491CF1E7012070BD70B500240D0029D0E6
:100040008D18B5F5817F25DA491EDFF81C5D13B1E7
:10005000012B0ED01FE093B2EBB135F811301B0A23
:1000600000F8013B521E35F8116000F8016B491C85
:10007000F1E793B27BB110F8013B1B0225F8113078
:10008000521E35F8113010F8016B334325F811304A
:10009000491CEEE70124204670BD2DE9F0474C1EB7
:1000A0008046D508A7B216466D1CF01941284FF0BE
:1000B00000093EDAB80807EB50714FF6F8702404D7
:1000C0000140E40C7F1ADFF8C4AD63B1012B1DD0F1
:1000D00031E0A0B20822B9B2504402F09FF8641C8B
:1000E00008F8010B6D1EA8B20028F2D14FF6F87087
:1000F00000EA0601711A00F052F81CE018F8013B02
:100100000822B9B202F05AF8641C6D1EA9B2A0B25E
:1001100002295044F2DA4FF6F87101EA0602B21AE7
:1001200091B241B118F8013BD2B2B9B202F046F82F
:1001300001E04FF001092FE02DE9F04715464C1E74
:100140008046EF08A6B27F1CA81911284FF00009BD
:1001500020DAB00806EB50714FF6F873240419400A
:10016000E40C761ADFF828AD09E0A0B20822B1B29B
:10017000504402F053F8641C08F8010B7F1EB8B21B
:100180000028F2D14FF6F87000EA0501691A00F074
:1001900006F801E04FF001094846BDE8F08718F87D
:1001A000012CC1F108018A40D2B2CA4008F8012CE2
:1001B0007047B0F5005F24D1DFF8D81CC86B10B9C8
:1001C0000120C863704701281BD10020C863DFF8F5
:1001D000C82C886B401C886313680A8A0B64012A48
:1001E0000ED1CB880A6D984209D1C86C821840F2B2
:1001F000671048BF02468242C8BF002200200A653D
:100200008863704738B5DFF8944CDFF8885C00F0FD
:100210005BFA298801295ED02088012102F014F9B7
:1002200060884B2102F010F9A0884FF4877102F02A
:100230000BF9E0884D2102F007F920896E2102F0C8
:1002400003F9608901F0F7FEA089782102F0FCF83B
:10025000E089112102F0F8F8208A022102F0F4F876
:10026000608A01F0E8FEA08A032102F0EDF8E08A3E
:1002700001F0E1FE208B4B2102F0E6F8A08B00F0AC
:100280006FF8E08B00F06CF8208C00F069F8608C5F
:10029000062102F0D9F8A08C062102F0D5F8E08CF6
:1002A00000F05EF8208D00F05BF8608D00F058F8EB
:1002B000A08D00F055F8E08D012102F0C5F8208EE8
:1002C00000F04EF8608E00F04BF8A08E00F048F879
:1002D000E08E00F045F800F0F7F900F0F0F900F0DA
:1002E000E9F900F0E2F900F07FF905F10C0120894D
:1002F00002F08CF800F0D4F9A089A91D02F086F86C
:10030000E089A91C02F082F8208A291D02F07EF8FB
:1003100000F0C1F900F0BAF900F0B3F900F0ACF95F
:1003200000F056F905F11C01A08B02F06FF800F007
:100330009EF900F097F900F090F900F089F900F0CB
:1003400082F900F07BF900F074F900F06DF900F02B
:1003500066F900F05FF900F058F900F051F925E175
:10036000052102F071B838B5DFF8304BDFF8245BB7
:100370002088298802F068F800F026F900F0A4F936
:1003800000F022F92989608802F05EF800F01CF97B
:1003900000F095F900F018F96989A08802F054F886
:1003A00000F012F900F086F900F00EF9E989E08812
:1003B00002F04AF800F008F900F077F900F004F9CB
:1003C00000F012F900F000F9A989208902F03CF848
:1003D00000F0FAF8208905F10C0102F017F800F09E
:1003E000F3F8698A608902F02FF800F0EDF800F068
:1003F00057F900F0E9F8E988A08902F025F800F043
:10040000E3F8A089A91D02F001F800F0DDF8698881
:10041000E08902F019F800F0D7F8E089A91C01F092
:10042000F5FF00F0D1F8A988208A02F00DF800F05D
:10043000CBF8208A291D01F0E9FF00F0C5F8298AD0
:10044000608A02F001F800F0BFF800F024F900F033
:10045000BBF8E98AA08A01F0F7FF00F0B5F800F0D8
:1004600015F900F0B1F8298BE08A01F0EDFF00F0FA
:10047000ABF800F006F900F0A7F8698B208B01F0CB
:10048000E3FF00F0A1F800F0F7F800F09DF800F0AD
:100490009FF800F099F8A98BA08B01F0D5FF00F030
:1004A00093F8A08B05F11C0101F0B0FF00F08CF86F
:1004B000E98BE08B01F0C8FF00F086F800F0D7F878
:1004C00000F082F8298C208C01F0BEFF00F07CF84F
:1004D00000F0C8F800F078F8698C608C01F0B4FF87
:1004E00000F072F800F0B9F800F06EF8A98CA08C5A
:1004F00001F0AAFF00F068F800F0AAF800F064F834
:10050000E98CE08C01F0A0FF00F05EF800F09BF8B1
:1005100000F05AF8298D208D01F096FF00F054F874
:1005200000F08CF800F050F8698D608D01F08CFFC0
:1005300000F04AF800F07DF800F046F8A98DA08D93
:1005400001F082FF00F040F800F06EF800F03CF897
:10055000E98DE08D01F078FF00F036F800F05FF8EB
:1005600000F032F8298E208E01F06EFF00F02CF89A
:1005700000F050F800F028F8698E608E01F064FFFA
:1005800000F022F800F041F800F01EF8A98EA08ECD
:1005900001F05AFF00F018F800F032F800F014F8FB
:1005A000A98AE08E01F050FF00F00EF8E08E05F110
:1005B000140101F02BFFEA8AA98A4FF47A704143B3
:1005C0005043A865696531BD052002F086B800007A
:1005D000688B00EE100AB8EE400ADFED5A0AC0EE52
:1005E000200AC5ED120A7047E88900EE100AB8EE3D
:1005F000400AF2EE040AC0EE200AC5ED110A704767
:10060000A08E05F1340101F001BF608E05F13201C9
:1006100001F0FCBE208E05F1300101F0F7BEE08D47
:1006200005F12E0101F0F2BEA08D05F12C0101F0C3
:10063000EDBE608D05F12A0101F0E8BE208D05F1C7
:10064000280101F0E3BEE08C05F1260101F0DEBED9
:10065000A08C05F1240101F0D9BE608C05F12201C6
:1006600001F0D4BE208C05F1200101F0CFBEE08B5B
:1006700005F11E0101F0CABE208B05F11A0101F03F
:10068000C5BEE08A05F1180101F0C0BEA08A05F1DF
:10069000160101F0BBBE608A05F1100101F0B6BE83
:1006A000608905F1120101F0B1BEE08805F10E018B
:1006B00001F0ACBEA08805F10A0101F0A7BE608878
:1006C00005F1080101F0A2BE2088294601F09EBE76
:1006D0002DE970430A68DFF8C837546A197819B9E8
:1006E0000121002519701EE00569AC4208BF0025F4
:1006F00019D0A54213684FF0FF310AD2DE0605D5A6
:1007000041616D42D16A6D1A65190CE001224261A6
:1007100002E0DE0602D54161651B04E00121416172
:10072000D66A3619751BD0E902892AB2D31718EB9D
:10073000020249EB0303C0E9022304610580BDE81E
:10074000708300000000C8422DE9F04F95B001F021
:10075000D5FF00F04CFB1421684601F0E9FF0020B2
:10076000DFF84057DFF84047DFF84067DFF84077B1
:10077000DFF840870590296841F0100129600021C9
:10078000286800F0100000F013FB42F080022A609D
:10079000286800F0800000F00BFB42F001022A60A4
:1007A000286800F0010000F003FB42F002022A601A
:1007B000286800F0020000F0FBFA42F008022A600C
:1007C000286800F00800059005980591E0212A6846
:1007D00042F004022A600022286800F0040005901C
:1007E000059801F08CFC0022C021304602F0B1F8DF
:1007F00000224FF40041384602F0ABF800222021DD
:10080000404602F0A6F818200021009001910291C4
:100810002046694601F0ACFFE02100F0D5FA204601
:1008200001F0A6FFC02100F0CFFA304601F0A0FF92
:100830004FF44050002100900191029140466946DA
:1008400001F096FF4FF48811019102224FF4804489
:10085000029200946946404601F08AFF4FF400502E
:100860004FF44411009001910022029269463846EB
:1008700001F07EFF4FF4004100F0A6FA384601F087
:1008800077FF02210191002202924FF4E0500321F0
:10089000009003910A2204926946304601F068FFF5
:1008A000202100F091FA404601F062FF002205216C
:1008B000282002F095F8282002F0B0F800200090DF
:1008C00000222968DFF8F06541F4800129600521E4
:1008D000286800F4800000904FF6FF7500983820DB
:1008E00002F07EF8382002F099F8002205213A2023
:1008F00002F076F83A2002F091F8242102A801F0E3
:1009000017FF00210022CDE900127260B26032614F
:100910007261B261039205920692079209920A925D
:10092000F5603046DFF89415316003210291012112
:100930000491089102A902F05DFA00F02CFA304609
:10094000694602F039FE00F0EBFA02A80023002607
:100950000021002280E84E00DFF86465DFF86405BE
:1009600006F50877CDE9001238607960BA60396120
:10097000B961FD60384602F0C3F900F0D1FA00F029
:100980002BFA00F0CDFA012203920021029104918A
:100990000022059202A9384602F01EFB00F0C0FAC0
:1009A00006F5C879DFF82005C9F848004FF49641EC
:1009B000C9F84C100020C9F85000C9F85400C9F813
:1009C00058000C21C9F86000C9F86400C9F85C102F
:1009D00006F5EC7002F060FE00F0D8F90022CDE9D7
:1009E0000012F8643A657D653866DFF8E014B96492
:1009F00006F51A77384602F04BF800F091FA00F04D
:100A0000EBF900F08DFA09A800F0D7F900F0CAF967
:100A1000DFF8BC74DFF8BC043860072140F633000F
:100A20000022F8607960BA603A61BA61384602F033
:100A30002FF800F0A5F9099009A9384602F0BAFB91
:100A400000F06EFA384602F0D0F800F069FA00F0D3
:100A5000C3F900F065FA602100220291039204922A
:100A6000069202A90822384602F03CFB00F058FA30
:100A70000C2202A9384602F035FB00F051FA384644
:100A800003F064FB684600F098F9DFF84C14DFF8D7
:100A90004C74316006F1300801217260B26032613D
:100AA000327686F82020F262F260F16188F8001058
:100AB0007261B762304603F031FC00F031FA012078
:100AC00000900190002202926946304603F073FDC7
:100AD00000F026FADFF80804C9F800004FF4E1310D
:100AE0000C200022C9F81400C9F80410C9F8082025
:100AF000C9F80C20C9F81020C9F81820C9F81C2022
:100B0000484602F0C9FD00F041F9CDE9001106F5B3
:100B10002C79DFF8D013C9F8481006F53E7A504614
:100B200003F0EEFD00F032F90091002201926946D7
:100B3000504603F0F9FD00F0F3F9102269465046E3
:100B400003F0F2FD00F0ECF906F1E80AE648CAF815
:100B500000000021DFF894B3CAF80810CAF80C109E
:100B6000CAF81410CAF81810CAF81C10CAF82010D5
:100B7000CAF804B0CAF81040504603F005FE00F071
:100B8000CFF9DB48CAF854000021CAF85C10CAF853
:100B90006010CAF86810CAF86C10CAF87010CAF869
:100BA0007410CAF858B0CAF8644006F59E7003F095
:100BB000EBFD00F0B5F906F16004CE4820634FF478
:100BC000827161630020A06300212064E16361649D
:100BD000E16421656165A1654FF40070A0640A219C
:100BE000E16506F1900003F079FE00F099F911A893
:100BF0000021002200238C4680E80E1000F0D2F87D
:100C0000202109A801F094FDBB48C9F8000000218B
:100C1000C9F80410C9F80810C9F81010C9F8141060
:100C2000C9F81810C9F80C50484601F031FF00F01F
:100C3000A7F8119011A9484602F0BCFA00F070F92B
:100C4000484601F0D2FF00F0A6F84846694602F097
:100C5000B3FC00F065F960200021029003910022AE
:100C60000591079104920692089200F0BCF800F0FA
:100C700057F9042200F0B7F800F052F9082200F00A
:100C8000B2F800F04DF90C2200F0ADF800F07EF85B
:100C90000A910C9109904FF4005100220E910B9291
:100CA0000D92109209A9484602F0CCFC00F038F9E8
:100CB000484603F04BFA9148914900F057F800F08C
:100CC0002FF99048904900F051F800F029F9684652
:100CD000002100220023002580E82E0001208B49FE
:100CE0006060C8F82C00C8F81810C8F81C20C8F8B4
:100CF0002020C8F82820227022726261C8F82420BF
:100D00002276276106F1480003F008FB00F008F99D
:100D100002200121009001910295694606F14800E8
:100D200003F049FC00F0FCF803F073FE01F09EFABA
:100D3000C9F86400FFF766FA01F05AFC744C0FF230
:100D4000E9102246002101F07CFCC9F85C0004F1A6
:100D5000240200216F4801F074FCC9F8600001F022
:100D600055FCFEE7B84C0020B84E0020532200236B
:100D700001604260836003618361C56001F088BEE9
:100D800008B172B6FEE74FF48050704708B172B6F2
:100D9000FEE70021704708B172B6FEE7002100911E
:100DA00001917047CDE9001202A81C2101F0C0BCDE
:100DB0000590059805912A687047002100220023BC
:100DC000002780E88E0070470091012200210291E7
:100DD00003910192694670470021009101913846C4
:100DE000694602F0E9BB02A9484602F07BB980B52A
:100DF00092B0302106A801F09BFC142101A801F05B
:100E000097FC002000904FF480334348016841F084
:100E1000805101600021006800F08050009000982F
:100E20003E480091026842F480420260012200685C
:100E300000F48040009006A80099069202214FF429
:100E400080020C910D9219214FF4A8720E910F920D
:100E50000221072207931091119203F08BFE00F0FC
:100E60005FF8022102910F204FF4A051019000225F
:100E7000049105910392052101A804F00BF800F0FC
:100E80004FF804F08DF813B000BD0000BC550020F1
:100E900080560020405400202448014020010020BA
:100EA000C2560020303802400010024000000240CC
:100EB000000C0240000402409C540020000001404D
:100EC0004447002000080040004800400014004053
:100ED000E454002000040040002001400100000F05
:100EE000001001400074004000540040A086010042
:100EF00000580040003C0040000401402C550020F8
:100F00000044014074550020004801400021014088
:100F1000C47F01089D210108403802400070004054
:100F200008B172B6FEE770472DE9F84F2DED048B3E
:100F30009AB00821DFF84C0ADFF84C6ADFF844AABF
:100F400001F060FE0C21DFF83C0A01F05BFE00219D
:100F5000DFF8380A01F0E6FEDFF8340A01F0A5FDFB
:100F6000DFF8300A01F0A1FD06F58271069106F165
:100F70008407DFF8242A059202F1860104919FED8F
:100F8000BB9A0598DFF8142A009200F58471079146
:100F90009FEDB78B059800F1460102914FF0FF3BA2
:100FA000059800F1C8010391DFF8F419019108E0F8
:100FB00006984168012904D106990120886008201B
:100FC0003080012001F089FB06980169C2689142D6
:100FD000B4BF0120002006994861DFF8B00902681B
:100FE000516A0698C6F880108169DFF8B809CAB25C
:100FF0004FF4004101F0ADFCF06FC2B24021DFF8C8
:10100000A80901F0A6FCF06FC2B28021DFF89809B0
:1010100001F09FFC0821DFF8940901F094FC706551
:101020004FF40051DFF8880901F08DFC38604FF46F
:101030008051DFF87C0901F086FCB06503993868BF
:1010400008800399706D4880009A118C029AD184AF
:101050000099029A096D5181009B9A8B029B1A8517
:10106000009CE38B029C6385009D95ED120A029D16
:10107000BDEEC00A10EE104AAC85029CA18400218E
:10108000029C6180029C39692180039CF969E1849A
:1010900003990B85039B5A85039988850399786C7E
:1010A000C8850399F86C48860399B86C88860098BF
:1010B000018A0398C1860099488A03990887009895
:1010C000048B04984485059D688D00F08BFF53ECDC
:1010D000182B03F097FF53EC182B04F069F804F079
:1010E0008FF9059D7866E88E00F07CFF53EC182B95
:1010F00003F088FF53EC182B04F05AF804F080F941
:10110000396DB86601290DD10020019A3865214654
:10111000D08A01F099F90098019A00F11801D08A5B
:1011200001F074F9706D01280CBF00200120786473
:10113000F86848B901210098F960418C059841850B
:101140000099888C0599C88603993088C8800399CE
:10115000708808810398418A0298B180018E012924
:1011600009D10299002008860098018C491E00F0E0
:1011700079FF00F08CFF0298418E012909D1029974
:10118000002048860098018C491C00F06BFF00F09D
:101190007EFF0298818E012909D10299002088865C
:1011A0000098818B491E00F057FF00F094FF0298D1
:1011B000C18E012909D102990020C8860098818B2F
:1011C000491C00F049FF00F086FF0298018F0129B9
:1011D00009D10299002008870098C18B491E00F0B0
:1011E00035FF00F070FF0598018D012909D105999F
:1011F000002008850098C18B491C00F027FF00F0F3
:1012000062FF0398418C012922D103990020488470
:101210000598C18E0098818405990098498D418474
:10122000019A508C01F010F90098019A00F1220106
:10123000508C01F0EBF80098818C0198808C01F0C3
:1012400003F90098019A00F12401908C01F0DEF876
:101250000298418C012904BF008C00280CD102980F
:1012600001210184022179610DE000BF0000C84224
:101270007B14AE47E12A5D400299088C18B9012120
:101280007961029948840398818C01290AD10399D4
:1012900000208884029988830299C883029908846F
:1012A0000299488440F6B931B86F88420CDB009847
:1012B0000022BA6700F0DCFE00F07CFE00F0FCFECD
:1012C00000F078FE00F07AFE0498C18A012919D155
:1012D0000799DFF8042D0120488000200499C88276
:1012E00000998863106000F062FE00F049FF00F092
:1012F00042FF0120F08000210098018200F0A2FE50
:1013000000F0D3FEF088DFF8D04C012827D10498F4
:10131000018B012932D1079901208880002004998E
:101320000883F86B010048BF404270810222049894
:1013300041833181B42089B291FBF0F00099F280B1
:10134000C8800098C1880198808901F07DF800F07C
:1013500031FE0098019A811D908901F057F8F088BC
:1013600002281FD10498818B012907D107990120F8
:10137000C880706D012802D10121318007E13088D9
:101380000028FBD10021216000F011FE00F0F8FEE2
:1013900000F0F1FE0499002088830320F080C8202B
:1013A00001F09BF9F088032832D13589706D40B97E
:1013B000F86BA84208DA00F0C9FE00F0E0FD00F08A
:1013C000A1FE706D0028D9D1F86BA842D6DB0021B0
:1013D0000020B164F064F16700F0E8FD009900209E
:1013E0008863C6E90A0000F0E2FD00F0C4FE0420B4
:1013F00000F0D6FD00F017FE00F00FFEB0890128C6
:1014000002D100F0FFFDB28240F6B83001F065F97C
:10141000F08804283ED13589706D58B9F86BA84220
:101420000BDA00F05FFE00F0B1FE0899B6F8680034
:1014300000F088FD706D002843D1F86BA84243DBB3
:1014400000F08EFE00F09CFE00F095FE052000F0FE
:10145000A7FD00F0E8FD00F0E0FDF089012815D1BE
:1014600000F0CAFDB38A00F074FDD183009B59805F
:10147000F08289B20198C08900F0E6FF00F09AFD81
:101480000098019A811CD08900F0C0FF40F6B83066
:1014900001F023F9F088052840F6B8352BD1B6F8CD
:1014A0000880706D58B9F86B40450BDA00F04EFEBD
:1014B0000899B6F86C0000F065FD00F023FE706D31
:1014C000002864D1F86B404561DB00F049FE00F074
:1014D00057FE00F050FE062000F062FD00F0A3FD74
:1014E00000F09BFDB089012802D100F08BFD328312
:1014F000284601F0F2F8F088062848D1B6F80880AE
:10150000706D58B9F86B40450BDA00F0EBFD00F058
:101510003DFE0899B6F86C0000F014FD706D0028CF
:1015200035D1F86B404532DB00F01AFE00F028FEA2
:1015300000F021FE002000F033FD00F074FD00F00B
:101540006CFDF089012815D100F056FD338B00F0B9
:1015500000FD1184009B9980708389B20198008AF4
:1015600000F072FF00F026FD0098019A011D108A1C
:1015700000F04CFF284601F0B0F8009901200882E5
:10158000012100F05FFD00F015FD00F08EFD0498D4
:10159000C18901290FD104990020C88100210120AF
:1015A000B08300984182012103984187002100F017
:1015B00045FD00F073FDB08B01281DD10498418CCE
:1015C000012922D103990120888702220498018AE7
:1015D000B2830020049A5084F065009A118101982A
:1015E000408800F031FF00F0E5FC0098019A00F11E
:1015F0000801508800F00AFFB08B022822D104981D
:10160000F16D808C10B90498C18482E00128FCD16E
:10161000039AD0870020049A90840498C1840421FE
:101620000498B183418A00984181019A908800F022
:101630000BFF00F0BFFC0098019A00F10A019088AE
:1016400000F0E4FEB08B042802BF0498018D01294C
:101650005FD107990120088000210498008AB18396
:10166000002204990A85B2EE041A049A918A009A1B
:10167000538900EE103A0B1A00EE903AB8EE400A89
:10168000F8EEE00A80EE200A20EE011ABDEEC11A43
:1016900011EE10CAA2F80EC0009B83ED110A009A49
:1016A0009181009908810098C1890198C08800F053
:1016B000CBFE00F07FFC0098019A00F10E01D0886B
:1016C00000F0A4FE0098C18900EE101AB8EE400A9E
:1016D000F2EE040AC0EE200AC0ED110A01210098C2
:1016E000418200F0ABFC00F065FC00F0D7FC0098F4
:1016F000009900894883642210FB02F10198008B55
:1017000089B200F0A1FE00F0D7FC00F057FC0021E8
:10171000F1650398818A012917D1039900208882F5
:101720000498818900988182019AD08E00F08CFE05
:101730000098019A00F11401D08E00F067FE009825
:10174000818A4FF47A72514341654FF47A75039858
:10175000C18A012915D103990020C88204984189C2
:101760000098C182019A908A00F06EFE0098019A5A
:1017700000F11601908A00F049FE0098C18A694381
:1017800081650398018B012922D1039900200883E8
:101790000498C18800988186049900980989418637
:1017A000019A508E00F050FE0098019A00F132012B
:1017B000508E00F02BFE0098818E0198808E00F0F4
:1017C00043FE0098019A00F13401908E00F01EFE55
:1017D0000398418B012922D1039900204883049862
:1017E0004188009881850499009889884185019AEB
:1017F000508D00F029FE0098019A00F12A01508DC9
:1018000000F004FE0098818D0198808D00F01CFE90
:101810000098019A00F12C01908D00F0F7FD0398DB
:10182000C18B012922D103990020C8830298418FDE
:101830000098018602990098898FC185019AD08D00
:1018400000F002FE0098019A00F12E01D08D00F008
:10185000DDFD0098018E0198008E00F0F5FD0098E6
:10186000019A00F13001108E00F0D0FD0398818BB9
:10187000012922D10399002088830298C18F009802
:101880000185049900980988C184019AD08C00F0E0
:10189000DBFD0098019A00F12601D08C00F0B6FD26
:1018A0000098018D0198008D00F0CEFD0098019AFE
:1018B00000F12801108D00F0A9FD0398018C012989
:1018C00004D10399002008840120B0670398018E99
:1018D000012910D1B86970B1039800210186B9615E
:1018E00000F056FB00F09FFB08980021C16379626D
:1018F000796301213963386C012803D010F1010F9D
:1019000001D10020B8630098418A012904BF018AEF
:10191000012940F04881F06DC0B1B868B0B90098B5
:1019200000F0A6FB00F0C8FB0098418B00EE101AF7
:10193000B8EE400ADFED120A80EE200A80ED120AAE
:10194000BDEEC00A029A10EE101A91850298808BA3
:1019500080BB0298C18D01293BD100990020086508
:1019600000F024FB00F00CFC00F005FC02990020C4
:10197000C8850120029988830299C88329E000BFA5
:101980000000C842E4540020000000209C540020C5
:101990002C55002074550020B84E002040540020E3
:1019A00020010020000C0240000002400010024014
:1019B00000040240012802BF0298C18B012904BF24
:1019C000C18D012905D102990020C8850098016DBB
:1019D00039610598418B012904BFB86900280FD1EE
:1019E0000598002141830099088C7969F8610129E3
:1019F00003D14EF66022504338620120B86178630B
:101A0000F869002840F3CA80B869002840F3CB8009
:101A10000099DFF8CC450A6D002A3EDD012857D138
:101A2000C98B00986943B962818B4D43B96BFD62E4
:101A30000220B86101290CBF012000207862A0B902
:101A40000121F1670122402100F059FB00F054FB15
:101A50000099C1F84CB000F09EFA0899B7F86400FC
:101A6000C86300F090FA00F080FA786A012814D177
:101A70000121F1670122402100F041FB00F03CFB15
:101A800000990120C86400F07EFA00F044FB089938
:101A9000B7F868000864012078670098016D002994
:101AA00016DCB869022813D17869022802D1F869D6
:101AB000401EF86100F041FB00F01EFB00F06BFAE5
:101AC00000F064FB00F057FA03217867B96102E087
:101AD000B86903283AD10099C88B002852D1042153
:101AE00000F0F8FA00F0EFFA786A401E48BF404272
:101AF0007862A0B90120F06701220098C0F84CB0CC
:101B0000402100F0FCFA00F0F7FA00F044FA0899DE
:101B1000B7F86800C86300F036FA00F026FA786A71
:101B2000012813D10121F16701220099C8644021E5
:101B300000F0E5FA00F0E0FA00F02DFA00F0EBFA20
:101B40000899B7F86400086401207867B869042828
:101B500018D10098016D3869814224DB7969022926
:101B600002D1F869401EF86100F0E7FA00F0C4FA0B
:101B700000F011FA00F00AFB00F0FDF9052178678A
:101B8000B96102E0B86905280DD10099888B50B978
:101B9000012100F09FFA00F096FA04E0786B01282A
:101BA00004BF01213963B08801280ED106980021B5
:101BB00041603180F96700220699B2800020708070
:101BC00008600698826003984282B16D726E306E32
:101BD000914206D028B90120002271663066FA666B
:101BE00001E0012823D1706E814220D0F06D97ED85
:101BF000010A7166401CF065002100983166F8EE1C
:101C0000C00AB7EE001A90ED110A81EE001A90EDAD
:101C1000120A00EE810A80ED120A20EE090A009AEB
:101C2000BDEEC00A10EE101A51830020F866F0884D
:101C3000022801DCB869002840F0E2800598C18CD8
:101C4000012904BF0120306505990C89706D012CB4
:101C50000AD1796D11B901227A65F96501223264E0
:101C600030B90221318003E014B900217965F965AA
:101C700005994D89012D0BD1B96D09B90122BA65BC
:101C800000210122F966726430B90221318003E03B
:101C900015B90021B96539660599B1F80E80B8F11A
:101CA000010F01BF0121B16401283180059AB2F80A
:101CB0000C90B9F1010F01BF0121F16401283080BE
:101CC00030D000282BD1B06C012811D10021B16493
:101CD000F16401200121F16748220099C864786706
:101CE000514608A803F0A8FB00F049F900F043F9B9
:101CF000F06C012813D10021B164F1640121009836
:101D0000F167C0F84CB0796700F045F90899B6F86A
:101D10006800C86300F037F9089900200864706D06
:101D2000012829D1706C012812D10021F06731649B
:101D30007164C7F804B000F02EF90899B6F8700085
:101D4000C86300F020F90899002008640120B860F9
:101D5000306C012810D101217960F06700213164D5
:101D6000716400F018F90899B6F8700000F00AF9EB
:101D700000F001F90120B860B9F1000F08BFB8F117
:101D8000000F07D1002C08BF002D03D1786DB96D6D
:101D9000084302D0306D01280FD100213165316434
:101DA0007164B164F1647967F167B965796500F0D0
:101DB000F2F800F0EBF900F0B6F906980168012995
:101DC0000DD106990020086030647064F067B86532
:101DD000786500F0D8F800F0D9F900F0A4F9069879
:101DE000816801290CD1069900208860B064F064F4
:101DF000F06700F0C8F800F016F908980021C163F8
:101E0000B06F01280AD10198008800F014F932203F
:101E100000F063FCFEF7F6F90020B067706F012850
:101E200003D100217167FEF79EFA386B012809D1B2
:101E3000002100F0ADF800F0A9F900F09CF8B861BD
:101E4000386378630098418A01291BD1009A009970
:101E500092ED120A89890089BDEEC00A10EE102A9F
:101E60008A4202DB059B1C8903E0904205DB059B4F
:101E70005C89012C04BF012333659142AEBF8242CD
:101E8000042030800799088901280FD10798002184
:101E9000018100984182022000F01FFC0098418AD5
:101EA00000F0CCF800F086F800F0F8F807984189C7
:101EB00001290FD10799002048810099088202204A
:101EC00000F00BFC0098018A00F0BCF800F072F8FA
:101ED00000F0EBF8F96FB86810BBF866012904D17F
:101EE00006990120086004223280796F09B9002028
:101EF0003867B6F9200008B100223A67012906D1F7
:101F000000998A6D396F8A42BFF652A800287FF483
:101F10004FA806990120486000207867FFF74CB869
:101F20000128DBD10098426DF86E8242D6DA726EDB
:101F3000B06D824208BF0029D0D100200121B860D5
:101F4000F967CDE7C863F08910B90121F18170828A
:101F5000704790FBF1F1B42292FBF1F013FA80F19B
:101F6000049A01EBD1714910704708990020086468
:101F700001207867704708990020C8637047089966
:101F8000B6F868000864514608A8482203F054BA1D
:101F9000B164F164F16708A85146482203F04CBAD5
:101FA000F080514608A8482203F046BA2060642019
:101FB00000F093BB0A2000F090BB00000098418B1A
:101FC00000EE101AB8EE400ADFED040AC0EE200A57
:101FD000C0ED120A70470000240001400000C84212
:101FE0000000024000EE100AB8EE400ABDEEC00A42
:101FF00010EE100A03F02CBA0021F1814FF47A712F
:10200000708A70470021B1814FF47A71308A90FB59
:10201000F1F1B42292FBF1F2704708980021C163FC
:10202000C82000F05ABB08980021016408A8514656
:10203000482203F001BA002100F006BA0198408955
:1020400000F002BA0198408A00F0FEB9C18389B25B
:10205000019AD08B00F0F8B9818389B2019A908BF4
:1020600000F0F2B9018489B2019A108C00F0ECB949
:1020700090ED120A20EE090ABDEEC00A10EE101A09
:10208000418301980099008B498B00F0DDB90098DD
:10209000019A00F12001108C00F0B8B90098019A63
:1020A00000F11201508900F0B1B90098019A00F1D5
:1020B0001001508A00F0AAB90098019A00F11A01A3
:1020C000108B00F0A3B90098019A00F11E01D08B8B
:1020D00000F09CB9B9610098019A00F11C01908B45
:1020E00000F094B900210120B164F064F06751461A
:1020F00008A8482203F0A0B9F06FC2B280212046A0
:1021000000F027BC08990020C863B08910B90121EC
:10211000B1813082704708990020C863514608A8F1
:10212000482203F089B908990020C863B8680128DB
:1021300002D10021B960F96670470020B064F064F4
:10214000F06700224021204600F003BC012100205E
:10215000B164F064F16708A85146482203F06CB9F5
:102160000021B164F16700200099F0648863206069
:10217000642000F0B2BA0020F863642000F0ADBA29
:102180000020C6E90A00642000F0A7BA08990020E0
:102190000864514608A8482203F04EB980B50020D3
:1021A00000904FF496430322012103F063F903F0FA
:1021B0008DF903F098F9FCE772B6FEE7F8B515461D
:1021C000092D04460F461E4607DB3622DFF848106D
:1021D00022A003F0E7F9AFF300803846C208A11847
:1021E000A35C497843EA0123012101FA05F56FF068
:1021F00007016D1E11FB020085404FF6F87012FBBF
:10220000007023EA050586403543ADB2A55422444B
:102210002D0A5570F1BD0000787F010830B50346E6
:10222000CC08185D23445D784FF6F87340EA05202A
:1022300014FB0313012404FA02F2D840511E084093
:10224000C0B230BD48B1012802D0072802D003E057
:1022500002207047062070470420704775634E4285
:10226000697473203C3D2038000000002DE9F047E0
:1022700086B00020DFF85093DFF85063DFF850A3FA
:10228000DFF8508300900024B9F8003030880194C2
:1022900002250124039504940595002B4FF0FF318E
:1022A0004C4635464FF6FF7268D04EF6EE66B342A6
:1022B00025D0934240F0938050B9204600F094F826
:1022C00010B900F019F900B9002006B0BDE8F08798
:1022D0004EF6EE6188420FD1204600F085F818B91D
:1022E00000F00AF90028F0D100220023294600F06E
:1022F0007CF90028E9D1E7E700F002F9F9E768BBCB
:1023000000260F4638F81600B9F80610814208BFBB
:10231000374639B28E420CD0514600F077F801288A
:1023200007D0BAF8001038F8160000F026F90100BE
:10233000CBD1761C402EE5DB00F054F90028C4D147
:10234000032003900121022204910592284600F007
:102350004BF80028B8D100F0CFF8CAE79042CBD1B3
:1023600003200390284600F03FF818B900F0C4F8A5
:102370000028AAD1002200232146B8E70028BBD0BC
:10238000904202D103200390E0E70027894638F805
:102390001700F188814208BFB9460FFA89F18F42D0
:1023A0000CD0514600F032F8012807D0BAF80010DE
:1023B00038F8170000F0E1F8010086D17F1C402FAB
:1023C000E5DB00220023294600F00FF90028F4D1B4
:1023D000022003900121059004912046B7E700F008
:1023E0008FF8002887D070E710B5014601200A4613
:1023F0004FF6FF7400E0091D02F57C53FF338B425A
:1024000003D30B88A342F6D0002010BD70B504465C
:102410000D46002000F098F80126AB2813D0800369
:1024200000F100626C4902F50042081800E0001F4C
:10243000911C814206D20188A142F8D1801E00265B
:1024400000882880304670BD2DE9F84386B00446E8
:102450000F4600F092F880284BD10020009000F049
:1024600073F8DFF86491012808BF032604D0002820
:102470003ED1DFF8589102264EF6EE62002349461F
:1024800000F0B3F8002834D13946204600F075F842
:1024900001002ED100254E4FDFF8388138F81500A5
:1024A000A0420BD03946FFF7B1FF012806D039888A
:1024B00038F8150000F061F8010015D16D1C402DB1
:1024C000ECDB039600210191022201210491059287
:1024D00000F012F820B900220023494600F085F8E8
:1024E0003E4A0121116004E03C4901230B6000E0F9
:1024F000AB2007B0BDE8F083694601A803F064B8DB
:1025000010B586B0002100910191012202210391B2
:10251000049205912C4C2046FFF766FF18B9FFF78F
:10252000EBFF01000ED100F05DF801000AD103209D
:1025300003902648FFF758FF18B9FFF7DDFF0100A9
:1025400000D1002006B010BD1F49204B0A88198811
:1025500058B101280FD14EF6EE6011B9824206D172
:1025600009E032B9814206D101E02AB109B901205E
:102570007047AB2070470020704770B504460D4689
:102580000120FFF7E1FFAB281DD0800300F10066BA
:10259000134906F50046081800E0361D864211D2A0
:1025A000316811F1010FF8D12A460023314600F0BD
:1025B0001CF840B92246B11CBDE870400023012040
:1025C00002F0F0B9802070BD0080000800C0000853
:1025D0005E56002020010020FEBF0008740000208D
:1025E000FFBF0008002200232146012002F0DAB9D3
:1025F000EFF3058000B16DE0DFF8F810086810B95E
:1026000001220A6070474FF0FF30704780B5EFF34A
:10261000058000B10FE0DFF8DC000168012909D175
:10262000DFF8D41000220A700223036003F092F94D
:10263000002002BD02E06FF0050002BD4FF0FF3048
:1026400002BDF8B584B000230393EFF30583002B9C
:102650003DD103003BD08025182600245AB31368CF
:1026600003B11C4693691BB11E0004D0392E02D25F
:102670001379DF0701D500202AE0536903B19D08D3
:10268000D2F80CC0976887B1BCF15C0F1FD31269F8
:10269000002A18BF002B1AD001920B460297009611
:1026A0002A46214603F03EF810E0BCF1000F04BFBB
:1026B0001269002A0BD103AB019300960B46AAB214
:1026C000214603F060F8012801D000200390039810
:1026D00005B0F0BD6FF00500704710B5EFF3058150
:1026E00011B16FF0050403E0002408B103F018F9FC
:1026F000204610BD9C5600201FED00E080B50B4821
:10270000016841F400710160026842F48062026075
:10271000016841F480710160032000F054F90F203A
:1027200003F0B2FB01F006FB002002BD003C0240BA
:10273000002203F0CDBB30B50168846842184168BF
:1027400002EB5103C90703D54C4401E0491C08D1F1
:102750009A4218BF12F9011B01D10C3030BD12F89A
:10276000015B002904F8015BF0D4491EF7D5EFE7BF
:102770002DE9F84F0D4600268049814A0F23044673
:1027800001202F68B04000EA0708804540F0D5805E
:102790004FEA460C032707FA0CF76FEA070E6F683B
:1027A00007F00309B9F1010F1CBF07F00307022F5F
:1027B00012D1A768D5F80C900EEA070709FA0CF9B0
:1027C00049EA0707A760676827EA00006F68C7F350
:1027D0000017B74038436060B0002F7907F0030757
:1027E000032F21D0E768D5F808900EEA070709FA09
:1027F0000CF949EA0707E7602F7907F00307022F72
:1028000012D1F70804EB870700F01C09D7F820A0C5
:1028100003FA09FB2AEA0B0AD5F810B00BFA09F9FA
:1028200049EA0A09C7F8209027680EEA070E2F79AF
:1028300007F0030707FA0CF747EA0E0CC4F800C0CC
:102840006F6817F4403F78D04FF0000ECDF800E0ED
:102850004FEA960C176847F48047176000F00C00A9
:10286000D2F800E0474F0EF4804ECDF800E0DDF8DE
:1028700000E057F82C7003FA00FE27EA0E0E424FD4
:10288000BC4208BF002722D0404FBC4208BF0127EE
:102890001DD03F4FBC4208BF022718D03D4FBC425D
:1028A00008BF032713D03C4FBC4208BF04270ED0FB
:1028B0003A4FBC4208BF052709D0394FBC4208BF78
:1028C000062704D0374FBC420CBF0727082707FA5A
:1028D00000F040EA0E00DFF8ACE04EF82C006FEAA2
:1028E0000800D1F808C06F6800EA0C0CFF0248BF6E
:1028F00048EA0C0CC1F808C0D1F80CC06F6800EAB7
:102900000C0CBF0248BF48EA0C0CC1F80CC0D1F84F
:1029100004C06F6800EA0C0CBF0348BF48EA0C0C07
:10292000C1F804C0D1F800C000EA0C0C6868C0030C
:1029300048BF48EA0C0CC1F800C0761C0F2E7FF689
:102940001FAFBDE8F18F0069084018BF0120C0B279
:10295000704702B9090481617047426901EA0203C4
:10296000914341EA0341816170470F4A1368014670
:102970000B421CBF1160FDF71CBC7047003C0140BE
:102980004438024008380140000002400004024080
:1029900000080240000C02400010024000140240F7
:1029A00000180240001C0240143C014009010200D2
:1029B00002D42F48815470472E4B02F00F021A4464
:1029C00002F8041C70472C4B19684FF6FF020002F6
:1029D000114000F4E060084328490843186070473C
:1029E00070B5254B1C68C4F302230124C3F107050D
:1029F000052D2EBF0F2504FA05F56D1E1E1D072E91
:102A000034BF0023DB1E2940994004FA03F3BDE8DC
:102A100070405B1E1A401143C8E70000010007D454
:102A2000012200F01F01164B8A40400943F8202084
:102A30007047BFF34F8F104912480A6802F4E062F2
:102A400002430A60BFF34F8F00BFFDE7401EB0F1A5
:102A5000807F01D3012070470B490C4A4860002356
:102A6000F02010708B600720086000207047000085
:102A700000E400E018ED00E00CED00E00000FA05D5
:102A800000E100E00400FA0510E000E023ED00E0C2
:102A900038B5040001D1012032BD00F03FF918B96A
:102AA00000F0E6FB01F0C5FA8BE090F83D1001293B
:102AB00001D001207047022180F83D10DFF8242268
:102AC0000168914218BFB1F1804F17D0DFF818228A
:102AD00091421CBFDFF8143299420FD0DFF8102268
:102AE00091421CBFDFF80C32994207D0DFF8082270
:102AF00091421CBFDFF80432994205D1896801F088
:102B00000701062905D001680A68084642F001025B
:102B100002600020704790F83D10012901D001208B
:102B20007047022180F83D100168CA6842F0010236
:102B3000CA600168DFF8AC21914218BFB1F1804F43
:102B400017D0DFF8A42191421CBFDFF8A0319942D1
:102B50000FD0DFF89C2191421CBFDFF898319942D9
:102B600007D0DFF8942191421CBFDFF890319942E1
:102B700005D1896801F00701062905D001680A68B6
:102B8000084642F001020260002070470168CA68EE
:102B900052085200CA6041F2111301680A6A1A42CF
:102BA00002BF096A40F24442114205D101680A6835
:102BB00052080B4652001A60012180F83D10002097
:102BC000704702206870211D206800F055FB01202D
:102BD000A8720121A970E87029716871A971E87162
:102BE000297268726970002032BD38B5040001D1C5
:102BF000012032BD00F092F818B900F039FB03F063
:102C000080F9DEE710B5044604F13E0009B9027808
:102C100007E0042908BF427803D008290CBF827856
:102C2000C278012A01D0012010BD11B90222027020
:102C30000AE0042902D10222427005E0082907BFF8
:102C4000022282700223C3702068012200F0A5FCDA
:102C500000F02BF818BF884200F02EF818BFB0F132
:102C6000804F12D000F01DF81CBFDFF88030984272
:102C70000BD000F012F818BF884206D000F029F8F7
:102C80001CBFDFF87820904203D100F01DF802D07D
:102C9000206800F021F8002010BDDFF85420904299
:102CA0007047DFF84420904270472068DFF83420F6
:102CB000DFF840109042704703D1436C43F4004367
:102CC0004364206890427047806800F0070006283F
:102CD00070470949884270470168024641F0010186
:102CE00011607047000001400004004000080040EF
:102CF000000C00400004014000400140001800406A
:102D000038B5040001D1012032BD00F007F818B930
:102D100000F0AEFA01F0F7F9FFF753BF04F13C05FC
:102D20006878704710B5044604F13E0011B9027886
:102D300003790AE0042902D14278437905E00829A1
:102D400007BF82788379C278C379012A08BF012B33
:102D500001D0012010BD21B90222027002230371AB
:102D600011E0042904D102224270022343710AE0D7
:102D7000082904D1022282700223837103E0022217
:102D8000C2700223C37100F024F800F02EF818BFBF
:102D9000B0F1804F14D000F024F81CBFDFF8F4200D
:102DA00090420DD000F019F81CBFDFF8E4209042EB
:102DB00006D0FFF78EFF1CBFDFF8DC20904203D166
:102DC000FFF782FF02D02068FFF786FF002010BDCA
:102DD000C2600122206800F0E0BBDFF8C01088422A
:102DE0007047DFF8BC10884270472068DFF8B410E5
:102DF00088427047F8B504000E4601D10120F2BDAB
:102E0000FFF78CFF18B900F033FA01F0C9F802207F
:102E100068702168DFF890038A6802408A60211D8B
:102E2000206800F029FA2268DFF880139368D2F84E
:102E300018C0176AB06801EA0C010843B16940EA9A
:102E40000120DFF86C130140F0680843F16940EAA3
:102E50000121306941EA0010316A40EA013C7068A2
:102E6000716927F0AA0707433068034347EA01174F
:102E700093602168C1F818C0012120680762A97217
:102E80000120A870E970A871E97168700020F2BD96
:102E9000000401400008004000180040000C004001
:102EA000000400400000014070B504462068C56879
:102EB0000669B10714D5AA0712D56FF002010161A6
:102EC00001222277806910F0030F204602D003F020
:102ED00019F803E003F017F800F07BF800202077E2
:102EE000700715D5690713D520686FF004020261D9
:102EF00002212177806910F4407F204602D003F040
:102F000001F803E002F0FFFF00F063F800202077F3
:102F1000300715D5290713D520686FF00802026124
:102F200004212177C06910F0030F204602D002F07F
:102F3000E9FF03E002F0E7FF00F04BF80020207704
:102F4000F00615D5E90613D520686FF0100202616E
:102F500008212177C06910F4407F204602D002F09A
:102F6000D1FF03E002F0CFFF00F033F8002020771C
:102F700006F0010105F00100014206D020686FF063
:102F800001010161204602F0BFFF300608D5290685
:102F900006D522686FF080001061204602F0B5FF70
:102FA000700608D5690606D522686FF040001061EA
:102FB000204602F0ABFFB0060AD5A90608D5226864
:102FC0006FF0200010612046BDE8704002F09FBF06
:102FD00070BD204602F09CBFF8B500F0DEF801D1CC
:102FE0000220F2BD012084F83C007AB9F3687268CF
:102FF0003168206800F040FA2168886920F00C00F0
:1030000088618A69B06802438A6163E0042A10D14A
:10301000F36872683168206800F085FA2068816979
:1030200021F4406181618169B26841EA02218161D4
:1030300050E0082A24D12168F068726833681C3196
:103040001B024F68D1F804C02CF4807CC1F804C086
:1030500027F42067D1F800C04FEA9C0C42EA8C02AA
:1030600060F3071203F420630A603B434B60086877
:1030700020F00C0008600A68B06802430A6029E08A
:103080000C2A26D12068F168726833681C301B0353
:103090004768D0F804C02CF4805CC0F804C027F462
:1030A0002047D0F800C02CF4407C4CEA022C61F39D
:1030B0000F3C03F42043C0F800C03B434360016869
:1030C00021F4406101600268B16842EA01220260B5
:1030D00000E0012500F001F8F2BD002084F83C007A
:1030E0002846704770B500F058F801D1022070BD35
:1030F000012084F83C0032B1042A15D0082A25D0DA
:103100000C2A34D045E0206800F008F9216888696D
:1031100040F008008861886920F0040088618A69AD
:10312000306902438A6135E0206800F023F92068A5
:10313000816941F400618161816921F4806181616B
:103140008169326941EA0221816123E0206800F04F
:1031500041F92168C86940F00800C861C86920F0D9
:103160000400C861CA6930690243CA6112E020687C
:1031700000F05FF92068C16941F40061C161C16973
:1031800021F48061C161C169326941EA0221C161F2
:1031900000E00125FFF7A1FF70BD0446002594F86B
:1031A0003C0001280E467047F8BFFFFFFCFCFFFF04
:1031B0000303FFFF70B5064606F13C05002428789E
:1031C000012801D1022070BD0120287002226A70FE
:1031D000DFF80403326893680340936008680200D4
:1031E00018BF102830D0202818BF30282CD04028F5
:1031F00026D0502819D060281BD0702806D0B0F5F2
:10320000805F27D0B0F5005F07D022E000F02BF8F8
:103210003068816841F0770105E000F024F83068FB
:10322000816841F48041816014E000F018F8502179
:103230000BE0CA684968306800F08BF9602104E04F
:1032400000F00DF8402100E00146306800F093F9ED
:1032500000E001240120687000F00AF870BDCA681F
:103260004968306850E1CB684A68896830688AE10B
:103270000021297020467047F0B50568974C984B9F
:10328000984E994FDFF864C2A04218BFB0F1804F4A
:1032900007D0604518BFB84203D0B04218BF98426B
:1032A0000DD14A6825F070051543A04218BFB0F152
:1032B000804F17D060451CBFB842B04212D0984230
:1032C0001CBF8B4A90420DD08A4EB0421CBF8A4A26
:1032D000904207D0894EB0421FBF894A9042894E22
:1032E000B04203D1CA6825F4407515434A6925F0F8
:1032F000800515430560A0428D68C5620A68826238
:1033000012BF984209690163012242610169CA073B
:1033100003D50169490849000161F0BDF0B5066AAD
:10332000026A6E4F52085200026226F0020644689A
:1033300085690B688A6825F073051D431643684B41
:10334000B84218BF984207D1CA6826F0080616434B
:10335000B84226F0040601D0984205D14B698A692B
:1033600024F440741C4314434460856149684163FC
:103370000662F0BDF0B5056A026A584E22F01002EE
:10338000026225F02005436884690A6824F4E64453
:1033900044EA02248A6845EA0215514AB04218BF3D
:1033A000904208D1CF6825F0800545EA0715B04264
:1033B00025F0400501D0904206D14E698A6923F478
:1033C0004063164343EA860343608461496881632E
:1033D0000562F0BDF0B5056A026A22F480720262ED
:1033E00025F400754368C4698E680A6824F0730484
:1033F00045EA06251443394E394AB04218BF904277
:1034000008D1CF6825F4006545EA0725B04225F4C8
:10341000806501D0904206D14E698A6923F44053F9
:10342000164343EA06134360C4614968C1630562F9
:10343000F0BD70B5046A026A284E22F4805202621E
:1034400024F400544268C3690D6823F4E64343EA58
:1034500005238D6844EA0534B0421CBF204DA842C4
:1034600004D14D6922F4804242EA85124260C36170
:1034700049680164046270BDF0B5046A056A174EBC
:103480006D086D000562B042856918BFB0F1804FCC
:1034900011D0164EB0421CBF134FB8420BD0114E84
:1034A000B0421CBF0E4FB84205D0114EB0421CBFF7
:1034B000124FB84203D1AD0842EA850201E045F05F
:1034C000010263F3071224F00A0401F00A01826189
:1034D00021430162F0BD00008800FFFF00000140B1
:1034E00000040140000C00400008004000040040BF
:1034F00000400140004401400048014000180040E5
:10350000001C00400020004010B5036A046A6408F3
:103510006400046223F00A03846924F0F00444EA9E
:103520000214846144E030B5046A056A25F0100590
:1035300005620901856925F4407545EA022563F3B2
:103540000F3524F0A00401F0A00185612143016240
:1035500030BD10B5036A046A24F01004046223F03D
:10356000A003846924F4704444EA0234846143EA89
:103570000113036210BD826822F07002114341F012
:1035800007018160704710B5846824F47F442143AB
:10359000114341EA0321816010BD10B501F01F0104
:1035A000036A01248C40A343036202FA01F1036A17
:1035B0001943016210BD000070B500F13C031A7898
:1035C000012A01D1022070BD01221A7002245C7010
:1035D00005686E68AC680A6826F0700616436E606F
:1035E00002681148824218BFB2F1804F11D01148D1
:1035F00082421CBF104DAA420BD00D4882421CBF14
:103600000E4DAA4205D0094882421CBF0C4DAA4269
:1036100004D1486824F08004044394600121597067
:103620000020187070BD0000000001400040014003
:10363000000C00400004004000080040000401406D
:103640000018004010B590F83C20012A01D102205A
:1036500010BD012280F83C20CC688A684B6824F4B5
:103660004074144324F480641C430A680B6924F4F6
:103670000064144324F480541C434A69C96924F447
:1036800000541443026824F480440C43546400231F
:1036900080F83C30002010BD38B5040001D1012075
:1036A00032BD00F01BF808B900F01CF800F01FF85C
:1036B00000F027F8FFE7416100F001F832BD206813
:1036C000C16841F40051C160002068602021697028
:1036D0002020A870002161630020704704F140059C
:1036E0006878704700212970204600F063BD2420CF
:1036F00068702068C16821F40051C160204600F064
:10370000B3BA2068016921F49041016120684169E0
:1037100021F02A0170472DE9FC4106460D4696F836
:103720004100202814461F4640D10DB1200001D190
:1037300001203CE000207064212186F8411002F055
:10374000E9FBB4848046F48400F033F804BF3069A8
:1037500000281ABF2C460025002412E000228021F8
:10376000304600F0A4F9E0B93068002C12BF14F81C
:10377000011B35F8021BC1F308014160F08C411EAA
:10378000F1844346F08C00970028E7D100224021C5
:10379000304600F08CF920B9202086F84100002046
:1037A00005E0202086F84100032000E00220BDE86B
:1037B000F681B068B0F5805F7047216801F11402AE
:1037C00052E8001F206800F1140321F0400143E893
:1037D000001000287047F8B5044625682A68284676
:1037E0000146C6684B6912F00F0F02F0200106F087
:1037F000200007D1002918BF00285DD02046BDE871
:10380000F240C9E1DF0702D416F4907F54D0D50707
:1038100005D5F60503D5656C45F0010565645507CA
:1038200005D5DE0703D5656C45F00205656495078F
:1038300005D5DE0703D5656C45F004056564120700
:1038400006D508B9DA0703D5636C43F0080363644F
:10385000626C002A2FD000291EBF0028204600F0ED
:103860009BF920684069616C0A0701D440061DD5A8
:10387000204600F067F920684169480611D5FFF736
:103880009CFFFCD1E06B60B10FF2FD210165E06BA4
:1038900002F0F9FB00280ED0E06B016DBDE8F440AA
:1038A00008472046BDE8F24002F0F8BC204602F08E
:1038B000F5FC00206064F1BD206B012804F1410398
:1038C00040F09280D00600D5F10640F18D800022B4
:1038D0000092296800912268506800900099206841
:1038E0004269500643D5E16B0868406880B2002801
:1038F000E1D0A28D9042DEDAE085C869B0F5807F24
:103900002DD0216801F10C0050E8001F226802F15F
:103910000C0521F4807145E800100028F1D100F079
:10392000A2F8490800F11405490045E800100028F4
:10393000F5D100F098F800F1140521F0400145E8B8
:1039400000100028F5D1202058700021216300F0DC
:1039500090F800F0E9F8FAD1E06B02F058FB022091
:103960006063A18DE08D091A89B2204638E0A08DF0
:10397000E18D411AE08D00281CBF88B2002871D06B
:103980002246106800F10C0454E8004F00F10C06C8
:1039900024F4907446E800400028F2D1106800F149
:1039A000140454E8004F640800F11406640046E86B
:1039B00000400028F2D120205870002313631068C3
:1039C00000F10C0353E8003F00F10C0523F0100355
:1039D00045E800300028F2D10220506389B2104639
:1039E000BDE8F44002F05BBC10062BD5310629D5AA
:1039F0001878212836D1A068B0F5805F04BF20690F
:103A0000002809D1206A01882A46C1F308015160C3
:103A1000206A811C216205E0206A411C2162226823
:103A200000785060E08C401EE08480B2D0B92068FD
:103A3000C16821F08001C1602068C16841F0400187
:103A4000C160F1BD50060DD571060BD52846C16881
:103A500021F04001C160204620211970BDE8F240EC
:103A600002F01EBCF1BD206800F1140151E8001FF6
:103A70007047206800F10C0151E8001F00F10C03B1
:103A80007047026802F10C0151E8002F036803F14E
:103A90000C047047016801F1140252E8002F52082B
:103AA00001F11404520044E80021002970472DE977
:103AB000FC41089C05460E4690461F462868016852
:103AC0003140B1420CBF0120002040452AD114F101
:103AD000010FF3D002F01EFAC01B844200D314B9C8
:103AE0000320BDE8F6812968C8684207E6D5802E24
:103AF00018BF402EE2D0084602681307DED500202A
:103B000000902A681368009349680091009828463D
:103B100000F018F805F14000082141600022027011
:103B20000120DEE70020DCE721F0100143E800106F
:103B300000287047016801F10C0252E8002F01F1E2
:103B40000C04704710B5FFF7F5FF22F4907200F0F7
:103B500016F8F8D1FFF79EFFFCD1016B012906D1C1
:103B6000FFF78FFF22F0100200F009F8F8D12021B2
:103B700080F842100022026310BD22F4807244E8F3
:103B80000021002970470000806B0021C1850022C0
:103B9000C28402F083BB00001CB590F842102229B9
:103BA00052D18168826AB1F5805F0AD1016969B931
:103BB00003685968C1F308011180826A911C81620F
:103BC0000FE0002904BF0169002902D10368596888
:103BD00003E00168496801F07F011170816A4A1CA5
:103BE0008262C18D491EC18589B259BB0168CA680C
:103BF00022F02002CA600168CA6822F48072CA609A
:103C000001684A69520852004A61202180F8421036
:103C100000224263016B012912D1026300F016F801
:103C200002681168CB0607D5002400941268009240
:103C3000036859680091009A818D02F030FB01E021
:103C400002F02FFB002016BD022016BD016801F115
:103C50000C0252E8002F01F10C0422F0100244E89B
:103C600000210029F2D1704770B50446226811691D
:103C7000E06821F4405101431161D3682748A168ED
:103C8000034020690B4361690343E0690B4303432D
:103C9000D3605169A06921F4407101435161204909
:103CA0008A421CBF1F48824202D101F085F901E01F
:103CB00001F07AF962682568E4691921B4F5004FCA
:103CC000A1FB00016FF0630612D1D30F520002F086
:103CD000E9FA00F029F8F60032366420B6FBF0F07D
:103CE000420002F4F87202EB011200F0070010E04B
:103CF000930F920002F0D6FA00F016F83601323631
:103D00006420B6FBF0F000F0F00202EB011200F0CC
:103D10000F008018A86070BD00000000F369FFFF6D
:103D200000100140001401406421B0FBF1F106FBDA
:103D30000106704782B0002000900022DFF8740571
:103D4000416841F480414160416801F48041009143
:103D5000009900920F21036843F0805303600068CC
:103D600000F08050009000986FF0010002B0FEF764
:103D700037BE38B586B000F056F92268DFF838351E
:103D8000DFF83805DFF838159A4233D10022009267
:103D90004B6943F480734B6100234A6902F48072DB
:103DA0000092009A009302220D6845F001050D6013
:103DB00003230968DFF80C5500F040F8DFF8080528
:103DC000286000216960E9604FF400604FF4806171
:103DD000686129614FF4807000224FF40051E8615E
:103DE000AA60A96100F04AFA08B1FEF7E5F9A563F7
:103DF000AC6319E0DFF8D4349A421DD1002200925E
:103E00004B6943F400734B6100234A6902F400726A
:103E10000092009A009304220C6844F001040C60A4
:103E20000323096800F00AF8002205211220FEF79A
:103E3000D7FD1220FEF7F2FD07B030BD01F0010101
:103E400000910099019202930022039201A9FEF7CA
:103E50008FBC10B586B000F0E6F82168DFF870047A
:103E600081421CD100F096F841F0005101610169D6
:103E700001F0005100F0D3F83021036843F0010352
:103E800003600322006800F0010000900098DFF852
:103E90002C04019102920021039100F0BDF806B0BC
:103EA00010BD10B586B000F0BEF82168DFF82424FC
:103EB000DFF82404DFF8084491420FD100F035F810
:103EC0004FF4407200F021F800200090216941F485
:103ED00000112161206900F4001012E0DFF8FC23DA
:103EE000914210D100F021F84FF4406200F00DF83B
:103EF00000200090216941F480012161206900F4D3
:103F000080000090009806B010BD216801F0020109
:103F1000009100990192029300220392032304224C
:103F20000493059201A9FEF723BC002100911223FE
:103F3000226842F002022260704710B586B000F09D
:103F400072F82168DFF89803814221D100F022F84D
:103F500041F400410161016901F4004100F05FF8A2
:103F60004FF4E051036843F0040303600222006849
:103F700000F0040000900098DFF8680301910292BD
:103F800000210391032206210591049200F044F8D8
:103F900006B010BD0022DFF82803009201697047C7
:103FA00010B586B000F03FF82168DFF83C0381428D
:103FB0002FD10022DFF808030092416941F001018E
:103FC0004161416901F0010100F029F84FF42061DD
:103FD000036843F0100303600222006800F0100041
:103FE00000900098DFF8040300F0AAF8012100F027
:103FF00012F8002205211920FEF7F2FC1920FEF725
:104000000DFD002205211A20FEF7EAFC1A20FEF71A
:1040100005FD06B010BD059101A9FEF7A9BB0091F1
:1040200000990092704704461422002101A802F072
:10403000BCB980B50168DFF8B822DFF87802914298
:1040400008D100210091026842F00202026000F0F3
:104050000FF901BDDFF89C22914211D1002100919E
:104060000521026842F0200202600022006800F090
:104070002000009000983720FEF7B2FC372038E08F
:10408000DFF8742291420FD100F038F842F00202BA
:1040900042600022406800F00200009000982D204D
:1040A000FEF79EFC2D2024E0944A91420FD100F0AF
:1040B00025F842F4003242600022406800F40030EB
:1040C000009000981920FEF78BFC192011E08C4A13
:1040D000914212D100F012F842F480224260002294
:1040E000406800F48020009000981A20FEF778FCC9
:1040F0001A20BDE80240FEF791BC01BD00210091ED
:1041000005214268704710B586B0FFF78CFF216823
:104110007C48814212D1FFF73DFF41F0040101616B
:10412000016901F00401FFF77AFF4FF4805100F0BC
:10413000AAF800F005F80221FFF76DFF06B010BDE8
:1041400001910292002103910491704710B586B04D
:10415000FFF769FF2068664A5949904211D1002053
:1041600000900A6842F002020A600222086800F029
:1041700002000090032100985748FFF7E1FF022159
:1041800014E05D4A904213D1002000900A6842F08A
:1041900004020A600222086800F0040000904FF454
:1041A000707100984F48FFF7CBFF0321FFF733FFF3
:1041B00006B010BD38B586B0FFF735FF2168534A09
:1041C0003F48914235D1002100914269504D42F063
:1041D000100242610022416901F01001FFF71FFF48
:1041E000C021036843F002030360022200F040F89C
:1041F000394800F054F8474828604FF00061696082
:104200004FF4807000224FF48061E861AA60EA6098
:1042100029616A61AA6100F031F808B1FDF7CCFFAD
:10422000E563AC63002205212520FEF7D9FB25209C
:104230001AE0394A914219D100210091026942F4F1
:10424000802202610022016901F48021FFF7E7FE6C
:104250004FF4407100F017F800F021F8002205211A
:104260002720FEF7BDFB2720FEF7D8FB07B030BDA7
:10427000006800F002000090009870472A626A62AD
:10428000284601F04DBE036843F008030360022294
:10429000006800F00800009000981B4870470191EA
:1042A000029200210391032207210591049201A9A2
:1042B000FEF75EBA40380240002001400000024094
:1042C0003038024080530020106402400021014039
:1042D00000740040005400400004024000580040B8
:1042E000003C004000080240000001400010024075
:1042F000000400400014004000040140004401405C
:104300000048014000080040000C0240001001403D
:10431000E0530020406402400048004070B504466D
:1043200000250CB9012070BD04F13006306928B9B0
:104330002046FFF71EFD0020706130733069C10612
:1043400000F192803069DFF8A41320F4885040F027
:1043500002003061086820F4403008600A68606834
:1043600002430A602068416821F48071416020683E
:104370004168226941EA022141602068416821F0D8
:104380004071416021684A68A06802434A60206821
:10439000816821F40061816021688A68E0680243D5
:1043A0008A602068A16ADFF848239142816821F081
:1043B000706181600CD021688A68A06A02438A60BB
:1043C00000F05BF821688A68E06A02438A6001E0D5
:1043D00000F053F82068816821F0020100F049F8EC
:1043E000227E41EA4201816094F820002168002881
:1043F00048680FD040F4006048602068416821F4AC
:104400006041416020684168626A521E41EA42315F
:10441000416002E020F4006048602068C16A21F435
:104420007001C1622068C16AE269521E41EA02510C
:10443000C1622068816821F4007100F01AF83278B6
:1044400041EA422100F015F821F4806100F011F8F2
:10445000626941EA82218160002070610120316936
:1044600060F30101316100E001250020307328462E
:1044700070BD81602068816870472068816821F084
:1044800040518160704770B5044620680568014658
:10449000A8074E682CD5B1062AD5206CC10603D4D6
:1044A000206C40F400702064206800F07AF804BFAB
:1044B000207E002815D12168C86A10F4700F03D03F
:1044C0000846816848050CD42168486820F020001F
:1044D0004860206C20F480702064206CC10400F0DF
:1044E00064F8204601F06BFF21686FF0120008604D
:1044F000680731D531062FD5206CC10603D4206C56
:1045000040F4005020642168886810F4401F1CD1DA
:10451000886B10F4401F02D08868420515D44868A3
:10452000420512D4886810F0405F04BF207E002846
:104530000BD1486820F080004860206C20F4805047
:104540002064206CC10500F030F8204601F038FFEF
:1045500021686FF00C000860E80710D571060ED5D1
:1045600020680268D1070AD5206C40F480302064AE
:10457000204601F026FF21686FF001000860A806C0
:104580000ED571010CD5606C40F0020060646FF0D4
:10459000200520680560204601F014FF21680D60A9
:1045A00070BD816811F0405F704703D4206C40F00B
:1045B00001002064704778B502460020009092F810
:1045C0003C30012B01D1022072BD012082F83C0059
:1045D00007240B6810680A2B12D30A3BC56803EB4B
:1045E00043039C4025EA0404C460C3680D688C68DA
:1045F000A5F10A0606EB4606B4402343C3600FE06C
:10460000056903EB430304FA03F325EA030303619B
:1046100003690D688C6805EB4505AC4023430361D5
:104620001F244B68072B0CD25B1E456B00F050F823
:104630004463436B4D680C886E1E00F044F843637E
:104640001BE00D2B0CD2DB1F056B00F041F804635F
:10465000036B4D680C88EE1F00F035F803630CE027
:104660000D3BC56A00F034F8C462C36A4D680C881B
:10467000A5F10D0600F027F8C3621E4B98421DD12C
:104680000C681A48122C03D1036843F480030360BA
:104690000B68102B18BF112B10D1036843F40003D3
:1046A00003600868102809D11449134C0B68B3FB48
:1046B000F4F40A204443009400F010F8002182F83A
:1046C0003C10002072BD06EB8606B44023437047C1
:1046D00003EB83039C4025EA0404704702E0009842
:1046E000401E009000980028F9D170470423014033
:1046F0000100000F0020014040420F006402002032
:1047000010B5040001D1012010BD207920B900218D
:1047100061712046FFF79DFB02202071002121617D
:1047200001202071002010BD70B5002818BF00299D
:1047300001D1012070BD4379012B01D1022070BD50
:10474000012343710224047102F0100203681C6803
:104750000E68496840F6FE7595400E43AC4396409E
:1047600034431C60C02401680B6804FA02F223EA97
:1047700002020A6000F001F870BD012101710022FF
:104780004271002070470000F8B5040025D004F104
:104790003C05697821B9002028702046FFF781FB8D
:1047A0002421697020680268520852000260206863
:1047B000016841F4004101602068026822F400426F
:1047C000026000F0F1FB01466068DFF8F8209042DB
:1047D00005D2DFF8F430994205D20120F2BDDFF8AE
:1047E000EC008142F9D32068DFF8E4304668B1FB81
:1047F000F3F3B60943EA861646602668376A6068AE
:10480000904206D34FF4967043434FF47A70B3FB53
:10481000F0F35B1CBF0943EA87133362491E236828
:10482000DE696768974206D27F0000F044F80429E9
:1048300013D2042111E0A06820B907EB470700F06C
:104840003AF805E01920474300F035F841F480417B
:1048500008050CBF012141F40041DFF87800064053
:104860000E43DE6122681368E169206A23F0C00309
:104870000B43034313602268DFF85C0093682169EF
:104880000340E0680B43034393602268D368A16947
:1048900060691B0A41EA03230343D360206801686F
:1048A00041F00101016000206860202169702063EF
:1048B0000021A970F2BDB1FBF7F1491CC1F30B0156
:1048C00070470000A186010080841E0000093D00A1
:1048D00040420F000030FFFF007CFFFF38B50400AE
:1048E00001D1012032BD606A28B900F051F805D02D
:1048F0000021E16102E00020206160610020A062EF
:1049000004F15005687820B9002129702046FFF78E
:1049100014FB0220687000F03FF86068A168E2684C
:1049200000F4827001F404410843217C02F4006227
:104930001043227D01F002010843A16902F0010247
:104940001043227F01F40071084394F8201002F014
:1049500038021043A26A01F080010843216802F482
:10496000005210430860A06994F824102268000CDB
:1049700000F0040001F01001084350602068C16994
:1049800021F40061C161002068600121697032BDBD
:104990006068B0F5827F70472068016821F04001AF
:1049A000016070472DE9F8436C4F0646387E894612
:1049B00014461D46012808BF022028D00120387661
:1049C0004CF25038404600F034F801001DD1484602
:1049D00022462B461EB9D1B200F085F80DE0012E1B
:1049E00003D191B200F069F807E0022E03D111461D
:1049F00000F05AF801E000F043F8404600F019F8E2
:104A000057490A68520852000A6000213976BDE809
:104A1000F2835549CA680020002A00D4704710B5B7
:104A2000524A534C0A600C60C968002948BF0120F3
:104A300010BD70B5044649494A4E0020C86101F0D6
:104A400069FA05463068C1030AD514F1010FF9D09F
:104A500024B101F05FFA401B8442F3D2032070BD01
:104A60003068C10744BF01203060346814F0F20F91
:104A700018BF00F042F814F0F20018BF012070BD1A
:104A800030B537490C6824F440740C600D6845F467
:104A900040750D600C6844F001040C6040F8042B74
:104AA000BFF36F8F036030BD10B500F015F844F40C
:104AB000007400F00BF8016010BD10B500F00CF8A8
:104AC00044F4807400F002F8018010BD1460136893
:104AD00043F0010313607047214A136823F44073C5
:104AE00013601468704730B5FFF7F6FF146015685F
:104AF00045F001051560017030BD1A4917480A6874
:104B0000D30605D5C26942F01002C26110230B60C2
:104B10000A68930605D5C26942F00802C2612023E3
:104B20000B600A68530605D5C26942F00402C261EF
:104B300040230B600A68130605D5C26942F00202E1
:104B4000C26180230B600A68930705D5C26942F0F1
:104B50002002C261022008607047000060560020F9
:104B6000103C02400C3C0240043C024023016745DB
:104B7000AB89EFCD2DE9F843040016D02078DFF89B
:104B80000463C10713D5B06800F00C00042807D0F7
:104B9000B06800F00C0008283DD1706841023AD599
:104BA0003068810303D56068002800F065812078B3
:104BB000B54F810719D5B06810F00C0F07D0B06859
:104BC00000F00C0008285BD17068410258D43068AE
:104BD000810703D5E068012840F04E8131682069E3
:104BE00021F0F80141EAC00131602178080779D548
:104BF0006069A649002868D001220A6001F08AF99C
:104C00000546706F81076DD401F084F9401B0228BE
:104C1000F7D9032033E16068B0F5803F04D13068F4
:104C200040F48030306011E0B0F5A02F306806D13C
:104C300040F480203060316841F4803105E020F498
:104C400080303060316821F480213160606858B173
:104C500001F060F9054630688103A8D401F05AF9E3
:104C6000401B6528F7D3D4E701F054F905463068B6
:104C700081039CD501F04EF9401B6528F7D3C8E7A6
:104C8000E068A8B10121396001F044F905463068B7
:104C9000810705D401F03EF9401B0228F7D9B8E797
:104CA0003068216920F0F80040EAC10030609CE7DC
:104CB000386001F02FF905463168880795D501F075
:104CC00029F9401B0228F7D9A3E7086001F022F96F
:104CD0000546706F810705D501F01CF9401B0228BD
:104CE000F7D996E72078410760D5306C0025C100E0
:104CF0000BD4002000900125316C41F080513164CB
:104D0000306C00F0805000900098DFF88481D8F873
:104D10000000C10513D4D8F8000040F48070C8F832
:104D2000000001F0F7F88146D8F80000C10506D46C
:104D300001F0F0F8A0EB09000228F5D969E7A068B6
:104D4000012805D00528306F06D140F004003067F7
:104D5000306F40F0010005E0400840003067306FE0
:104D600020F00400306741F28938A06860B101F09A
:104D7000D1F88146306F810713D401F0CBF8A0EB56
:104D800009004045F6D344E701F0C4F88146306F8E
:104D9000810706D501F0BEF8A0EB09004045F6D327
:104DA00037E71DB1306C20F080503064A0690028D6
:104DB00064D0B16801F00C0108293AD002282AD148
:104DC0000020386601F0A6F805463068810105D557
:104DD00001F0A0F8401B0228F7D91AE7E069216A20
:104DE000626A0843A16A490840EA8210491E40EA03
:104DF0000140E16A40EA016070600120386601F01C
:104E000089F804463068810138D401F083F8001B2A
:104E10000228F7D9FDE60020386601F07BF8044649
:104E2000306881012AD501F075F8001B0228F7D9F6
:104E3000EFE6012820D07068E26900F48001914219
:104E400002BF00F03F01226A914201BF47F6C071E4
:104E50000140626AB1EB821F0ED1A26A00F44031B8
:104E600001F580315208B1EB024F02BF00F07060D3
:104E7000E16AB0EB016F01D0012000E00020BDE845
:104E8000F28300BF0038024000004742800E4742D4
:104E9000007000402DE9F04104000F4654D0504E00
:104EA000306800F00700B84202D200F073F84BD12E
:104EB00020684C4D810712D5400703D5A96841F4FD
:104EC000E051A9602078010703D5A86840F460404C
:104ED000A860A968A06821F0F0010143A9602178C9
:104EE000C80729D56068012802D129688A0305E02E
:104EF000022818BF032803D129688A0103D423E0BC
:104F000029688A0720D5A968890840EA8100A86035
:104F100001F000F88046A868616800F00C00B0EB72
:104F2000810F09D000F0F6FFA0EB080041F28931B3
:104F30008842F0D303202BE0306800F0070087425E
:104F400004D200F027F801D0012021E020784107A9
:104F500005D5AA68E06822F4E0520243AA602178ED
:104F6000080706D5A968206921F4604141EAC0011B
:104F7000A96001F029FAAA681B491C4BC2F303126D
:104F8000895CC84018601A48006800F07DFF002066
:104F9000BDE8F0813770316801F00701B942704710
:104FA00015490120086070471048124A00681368CC
:104FB0001249C3F3822206E00C480E4A00681368C7
:104FC0000E49C3F34232895CC840704710B50C4C9F
:104FD0002068010603D501F027FA8020A07010BDDB
:104FE000003C024000380240E080010864020020DA
:104FF00060020020083802404C00474268810108E6
:105000000C38024030B540F2FF7C1CEA11541DBF41
:105010001CEA1355644565453FE0641981EA030CB9
:105020006FF35F530CF0004C43F48013C90241F05E
:10503000004141EA505EC5021100A5FB02020028B2
:105040004FF00000EEFB01204FF00001E3FB0521D3
:1050500018BF42F00102401800214941E3FB0E0154
:10506000A4F580640D0302D292184041494154F1E5
:10507000010470DD450872F1004250F1000051EB6F
:105080000451A1F5801102D441EA0C0130BD40F277
:10509000FF7E4CEA0E51002030BD0CEA13556445EA
:1050A00018BF654581EA030C0CF0004C41D050EA72
:1050B000410E1CBF52EA430E02E06146002030BDA3
:1050C00024422C441BD15FEA050EF6D0090302BF2F
:1050D00001460020AEF1140EB1FA81F5AEEB0504E5
:1050E00001FA05FE0C35C5F1200100FA05F5C840AE
:1050F0004EEA000E6FF35F5343F480139CE733F0E6
:105100000043B3FA83F504BFB2FA82FE75440B3D47
:10511000641BB5F1200E2FBF02FA0EF3AB40C5F1B0
:10512000200E22FA0EFE38BF43EA0E03AA40641C8A
:105130007CE750EA410E14BF52EA430E6FF00001C3
:105140004FF4001515EB430F8EBF194615EB410FB9
:105150009DE7B4D830BDD4F10104B4F120050FDAD5
:10516000C4F12005520828BF42F0010210FA05FEE2
:1051700001FA05F57244E2BFE0402843E1400FE048
:10518000352C9ADCC5F1200452EA400220FA05F2DF
:1051900018BF42F0010231FA05F0A1400A43002194
:1051A00072F1004250F1000051EB0C0130BD0000E3
:1051B00070B491EA030F4FF0004540F1B7806B40A7
:1051C000841A71EB030604D26E40001BB141121920
:1051D00073414FF4001C1CEB410F34BF7CEB4306C2
:1051E00083E00C0DA4EB1356362E00F37C80012EC9
:1051F00045EAC32341DC43EA525312BFD202920272
:105200005B08240545EAC12141EA5051D2EBC02098
:10521000994125D407D1B0FA80F610FA06F162D090
:105220000020203608E0B1FA81F6B140C6F1200234
:1052300020FA02F21143B0404FEAF474B4EB465442
:1052400034F001064FEA74040AD8D6F50016760D3C
:1052500004F00044F04061FA06F25040F14048404A
:10526000C00A40EA415021F0004128BF5FEA5005E2
:1052700050F1000044EBD12135E0DB0A45EAC121C1
:10528000C90AB6F120050EDD42EA0242120CC5F150
:10529000200603FA06F6EB4042EA06056D42984105
:1052A00061F100010DE062FA06F5F240554063FA43
:1052B00006FC82EA0C02F3405A406D42904161EBD9
:1052C000030111F4801F05D1641E620502D06D0038
:1052D0004041494121F48011430875F1004350F1E8
:1052E000000041EB045170BC70471CEB410F15D21C
:1052F00023F0004352EA43060BD04FEA4C0CBCEBC0
:10530000410F04D80C0D661E342EB7DDEBE7801A72
:10531000994150EA410608BF0021E4E708BF1CEBB1
:10532000430F28BF6FF00001DDE70000841A71EB26
:10533000030603D2001BB141121973414FF4001C44
:105340001CEB410F34BF7CEB430442E00C0DA4EB9B
:105350001356352E4FDC45EAC323DB0A45EAC1214B
:10536000C912B6F120050DDD63FA05F6EB4086EAB9
:105370000305124218BF45F00105C01851F10001A4
:105380000CD213E062FA06F5F2405540F3415A4060
:10539000B340F3405A408018594107D349085FEAA7
:1053A00030005FEA350528BF45F0010501F58011A1
:1053B000420875F1004250F1000041EB04514E00EB
:1053C00016F5001F70BC38BF70470020090D090595
:1053D00070471CEB410F10D252EA43060BD0BCEBD6
:1053E000410F05D80C0DAB43661E342EB6DD02E02E
:1053F000AB438018594170BC704770BC70470000C7
:10540000C1F30A5340F21E42D31A0CDDCA0283F3E1
:10541000070342EA505242F00042DA4002EBE172E6
:1054200082EAE17070476FEAE17203F2E13008B19D
:1054300082F00040704700004AB1000011F8013BC3
:10544000521E00F8013B1CBF11F8013BF8E7704702
:1054500010F0004160B148BF4042B0FA80F2904085
:10546000D21CC2F5846241EA025202EBD02140050F
:105470007047000070B514461A460B0023D0F82977
:1054800021DA3F4D2970F0B93E483F49049B3F4E19
:10549000E86029616E623E483E49A860696100206B
:1054A000A8613D493D482862E9612146287800F01D
:1054B000BDFF040008D101F0FBF800280EBF032453
:1054C0000120687000E00224204670BD38B52C4DE4
:1054D00068780024012803D1E86880476C7000E0F8
:1054E0000624204632BD7CB5254C607808B10620E4
:1054F00076BD684601F0E7F801283ED19DF800002E
:10550000012802D0022811D037E06369221D04F17E
:105510002801A01C984780BBA0782178884218BF3A
:1055200000282AD1022001F0C8F826E0A26A1C4E09
:105530001378E3700120002516F8351059B199420F
:1055400003D06D1C102DF7DB05E01046321D211D28
:1055500052F835309847A17879B1010008D0E17848
:10556000A26A41F080011170A16A48700220A080F7
:10557000A288A16A2078A3689847002076BD000021
:10558000A0010020676401087D640108016601082C
:10559000EB640108916401083D6501089D650108FF
:1055A000CC01002000B583B00091019202906A46C0
:1055B00004491820ABBE002801D101F091F803B0D6
:1055C00000BD00BF101002002DE9F047524E044606
:1055D000307E8946012808BF02203CD00120307669
:1055E0004CF2503A5046FFF724FA804680BB4FF009
:1055F000FF30C9F800002168484D01290DD120690C
:105600006168C0B200F029F85046FFF712FA8046F0
:10561000286820F00400286018E0A76800E07F1CDC
:10562000E068A1680818874210D22169C9B23846DB
:1056300000F023F85046FFF7FCF95FEA00082868FD
:1056400020F0FA002860EAD0C9F8007000F03BF8BA
:10565000002030764046BDE8F08730490A6822F4E1
:1056600040720A600B6843F004030B600A6842EA68
:10567000002242F480320A60704710B500220B000D
:105680000AD0012908BF4FF4807205D002290CBF4F
:105690004FF400724FF4407220490B6823F44073BA
:1056A0000B600C6822430A600A6822F0F8020A6064
:1056B0000B6843EAC00343F002030B60086840F440
:1056C0008030086010BD164801688A050FD5016852
:1056D00021F400710160026842F400620260016816
:1056E00021F400610160026842F400720260016806
:1056F0004A050FD5016821F480610160026842F417
:1057000080520260016821F480510160026842F415
:10571000806202607047000060560020103C02402A
:10572000003C0240F0B585B050260B9D25B986F3AC
:10573000118800F044FAFEE70C9C24B986F3118826
:1057400000F03DFAFEE75C270097DDF800E0BEF1CF
:105750005C0F04D086F3118800F031FAFEE7009E5A
:1057600025630026022584F8595004AF0A9D03964C
:1057700002940197009500F034F8204600F078F884
:10578000049805B0F0BD2DE9F8430646174684B0ED
:1057900088469946B80000F0A7FF05001CD05C20A1
:1057A00000F0A2FF040014D00020256384F8590003
:1057B000039002940D980C99019000914B463A4643
:1057C0004146304600F00DF8204600F051F8012027
:1057D00004E0284601F011F84FF0FF3005B0BDE8B5
:1057E000F0832DE9F0470A9F81460C461546386B39
:1057F0009A46A522A90000F067FB396B01EB8502F0
:10580000101FC0084FEAC00808F0070007F1340570
:1058100054B10021625C6A54605C10B1491C1029CB
:10582000F8D30020E87300E02870089E372E88BF68
:105830003726099CFE62AE61E861C6F13806381D64
:1058400001F037F807F1180001F033F83F61BE614D
:105850007F6200202862002187F85810524649468E
:10586000404601F063F8386004B12760BDE8F08776
:105870002DE9F04100F06BF8DFF80455DFF864859E
:10588000E86C401CE8641426A86A28BBAC62E86C8B
:10589000012829D1002706FB07F0404400F0FCFF57
:1058A0007F1C382FF7D305F1740000F0F5FF05F1E8
:1058B0008807384600F0F0FF284600F0EDFF05F1BC
:1058C000140000F0E9FF05F1380000F0E5FF05F1F4
:1058D0007400E8622F6307E0A86D28B9E06AA96A3E
:1058E000CA6A904228BFAC62A86EE26A401C60643B
:1058F000696D914238BF6A65A8665643211D08EB61
:10590000060000F0D9FF01F09CF8A86D30B100F05E
:10591000A3F903D200F077FA00F051F9BDE8F08165
:1059200080B588B1DFF85824116F21B100F02EF94D
:1059300000F045F9FEE7116F491C1167002100F0E6
:105940006DFA00F044F808B900F034F901BD0446DE
